:400000000010002011000000950400009504000080B500AF00F042FA80B500AF194B194A12688021C9020A431A60182000F008FC144B144A1168144A0A401A60134B144AA5
:400040001A60144B20221A60134B10221A60134B30221A60124B11221A60124B802212061A60114B114A1A60114B124A1A60124B124A1A60124B134A1A60134B00221A6058
:40008000BD4680BD00010B40FFFFFBFF04010B40060000801402024018020240200202402402024008010B4000000240FE00008040000240FE0000C08000024001000080CF
:4000C000040002400B0000800C020B4080B582B000AF72B6FB1D00221A7023E0FB1D1A78131C5B009B185B00464A9B183B603B681A78597809020A43997809040A43DB7895
:400100001B0613431A1C3B6819795B791B020B439BB2101C191C00F03FFAFB1D1A78FB1D01321A70FB1D1B78012BD7D9364A374B101C191C00F040FA354BC02292021A60C4
:40014000344BEE2212021A60334B344A1A60344B802292021A60334B992212041A60324B992212041A60314B992212041A60304BC02292051A602F4B2F4A1A602F4B2F4A97
:400180001278D2B202210A43D2B21A702C4B2C4A1278D2B23C218A43D2B214210A43D2B21A70264B254A1278D2B216210A43D2B21A70244B11221A60234B244A1A60244B19
:4001C00010221A60234B10221A60234B94221A60224B94221A60224B80221A60214BD82212011A60204B80221A60204B04221A601F4B04221A60FFF70FFF00F01DFABD46D8
:4002000002B080BD8425000090250000AC250000000001400C00014000500F400400990004500F4010500F4020500F4030500F4038500F40200105401D0D000000700F40D0
:4002400001700F4000000440080004400260000000010440180104400002044018020440000304400803044018030440000404401804044010B5064C2378002B07D1054BE4
:40028000002B02D0044800E000BF0123237010BD18010020000000006025000008B5084B002B03D00748084900E000BF07480368002B03D0064B002B00D0984708BDC04619
:4002C00000000000602500001C010020C80000200000000080B58AB000AF00F037FA00F0D1F80E4B181C00F065F800F003FD01F025F9642000F0B6F83A1C094B111C1A1C54
:400300002023081C111C1A1C02F018F900237B623B1C3B6262B600F005F8FCE7301100006425000080B500AF01F040FA00F042FDC04600F06BFD031C002BFAD1002001F088
:4003400075FB031C1A1C174B1A80164B1A88164B9A4202D1134B00221A80124B1A88134B1B889A421CD00F4B1A88104B1A800D4B1B881A1C131CDB019B1A181C052102F099
:4003800055F8031C1A1C0A4B1A60094B1B68DBB21A1C9200D318DB18DBB2181C00F04CF8BD4680BD72010020FFFF000074010020CC00002080B584B000AF021CBB1D1A80D3
:4003C0001A4BBA1D12881A80194B0A225A43BB1D1B88101C191C02F029F8031CBB60154B1B78BA685343181C642102F01FF8031C1A1C3B1C0E331A803B1C0E331A88BB68E6
:400400009A4206D13B1C0E331A883B1C0E33013A1A80BB68181C00F0B9F93B1C0E331B88181C00F0C1F9BD4604B080BD3401002080841E00CC00002080B582B000AF021CC5
:40044000FB1D1A70054BFA1D12781A70044B1B88181CFFF7AFFFBD4602B080BDCC0000203401002080B582B000AF021CFB1D1A70034BFA1D12781A70BD4602B080BDC0461B
:40048000CD00002080B500AF002000F08DF9BD4680BDC04680B500AFFEE7C04680B586B000AF224B7B61224B3B61204B7B6135E03B691B68FB603B695B68BB603B699B684D
:4004C0003B6000237B600CE0FB681A68BB681A60BB680433BB60FB680433FB607B6804337B607A683B689A42EED13B69DB683B6000237B6008E0BB6800221A60BB680433F5
:40050000BB607B6804337B607A683B689A42F2D13B6910333B617B69013B7B617B69002BC6D101F0E5FFFFF7D5FEFEE701000000FC26000080B582B000AF00237B600FE0B9
:400540007B68032B04D8104B7A689200D35800E00E4B0F4A796889008B507B6801337B607B682F2BECD9FFF7B1FD0A4B00221A608023DB058022D205126801210A431A60D5
:40058000BD4602B080BDC046000000009504000000000020C000002080B582B000AF786039607A683B68101C00211A1C01F0CFFFBD4602B080BDC04680B586B000AF786072
:4005C000396000233B6100237B612EE07B699B007A68D3181B68BB603B1C0F33BA681A70BB68FF229343BB6017E03B695B003A68D3181B781A1CBB68D3183A695200396842
:400600008A1852781A703B6901333B613B1C0F331A783B1C0F33013A1A703B1C0F331B78002BE2D17B6901337B617B69062BCDD9BD4606B080BDC04680B500AF012000F01D
:4006400003F8BD4680BDC04680B584B000AF021CFB1D1A70154B1B68FB60FB1D1B78002B05D0FB68802212061343FB6003E0FB685B005B08FB600D4BFA681A600C4B1B683D
:40068000FB60FB1D1B78002B05D0FB68802292041343FB6003E0FA68064B1340FB60044BFA681A60BD4604B080BDC04680031A4008010B40FFFFFFFD80B500AF104B802273
:4006C000D2041A600E4B0E4A12681A60002000F04FF80B4B0A4A12681A600A4B0C221A60012000F08DF8084B31221A60074B181C00F04CF8064B181C00F056F8BD4680BDA0
:40070000400105406401054068010540301100009808000090B583B000AFFC1D00F086F8031C2370084B084A126802210A431A60FB1D1B78181C00F07DF80220182100F002
:4007400041F8BD4603B090BD0000054080B500AF064B1B78002B04D1FFF7AEFF034B01221A70FFF7D7FFBD4680BDC0463601002080B582B000AF7860034B7A681204120CD7
:400780001A60BD4602B080BD4801054080B582B000AF7860034B7A681204120C1A60BD4602B080BD5401054080B582B000AF7860034B7A681204120C1A60BD4602B080BD29
:4007C0004C01054090B585B000AF786039603C1C0F3400F02BF8031C2370084B3A687968081C9040021C1A603B1C0F331B78181C00F020F8BD4605B090BDC046080005404B
:4008000080B582B000AF7860024B7A681A60BD4602B080BD780105400230800804D0C0460138FDD1C046C046C0467047EFF3108072B6704780F310887047C046C046C046E8
:4008400090B585B000AF78603C1C0C34FFF7EEFF031C23707B68022B00D8AFE07B68302B00D9ABE05B4B1B78DBB21A1C7B689A420AD3594A3B1C0F3312781A70574A3B1C51
:400880000E3312781A703FE0554B1B78DBB21A1C7B689A420AD3534A3B1C0F3312781A70514A3B1C0E3312781A702DE04F4B1B78DBB21A1C7B689A420AD34D4A3B1C0F33D8
:4008C00012781A704B4A3B1C0E3312781A701BE0494B1B78DBB21A1C7B689A420AD3474A3B1C0F3312781A70454A3B1C0E3312781A7009E0434A3B1C0F3312781A70424AFA
:400900003B1C0E3312781A707B68DA1E3B1C0B333E498A5C1A703B1C0B331B782F2B0DD97B682A2B0AD93A4B19221A600520FFF773FF3B1C0D3319221A7007E0344B1B6815
:40094000D9B23B1C0D333F220A401A703A1C0B323B1C0D3312781B789A4208D22C4B7A68033A2A498A5C1A600520FFF755FF294B7A68254952181278D2B21A60264B3A1CCE
:400980000F3212781A60254B3A1C0E3212781A60052000F0F5F83A1C0B323B1C0D3312781B789A4209D91A4B7A68033A17498A5C1A600520FFF730FF03E002E0002000F07E
:4009C000D5F83B1C0C331B78181CFFF733FFBD4605B090BDC0F1FF0FC1F1FF0FC2F1FF0FC3F1FF0FC4F1FF0FC5F1FF0FC6F1FF0FC7F1FF0FC8F1FF0FC9F1FF0FCAF1FF0F34
:400A0000CBF1FF0FCCF1FF0FCDF1FF0FEC2500002CFF0B4028FF0B401CFF0B4020FF0B4080B584B000AF021C3960FB1D1A7080239B05FB60FB1D1B781F2B02D9002000F09D
:400A400095F8FB1D1B7810339B00FA68D3181B68BB60FB1D1B7810339B00FA68D3183A681A60BB68181CBD4604B080BD90B587B000AF0A1CFB1D011C1970BB1D1A70BB1DEF
:400A80001B78032B02D9002000F070F8FB1D1B781F2B02D9002000F069F8FB1D1A7803231340DB0006337B613C1C1334FFF7BEFE031C2370FB1D1B789B08DBB29B001449F8
:400AC0005B181B68FB607B690322111C99400B1CDA43FB681340FB60BB1D1A787B69111C99400B1CFA681343FB60FB1D1B789B08DBB29B00064A9B18FA681A603B1C1333C1
:400B00001B78181CFFF796FEBD4607B090BDC04600E400E080B582B000AF021CFB1D1A70064BFA1D11781F220A400121081C9040021C1A60BD4602B080BDC04600E100E0DA
:400B400080B582B000AF021CFB1D1A70064BFA1D11781F220A400121081C9040021C1A60BD4602B080BDC04680E100E080B582B000AF021CFB1D1A7001BEBD4602B080BDB5
:400B800080B582B000AF021CBB1D1A80BB1D1B88044A12785343181CFFF73EFEBD4602B080BDC046D800002080B582B000AF00237B6007E00A4A7B68D31800221A707B68A4
:400BC00001337B607B68042BF4D900F00BF8002000F08EFB00F036F9BD4602B080BDC0469C01002080B582B000AF244B1B68DAB2234B1A70224B1B787B607B680F22934356
:400C00007B60204B1B78DBB21A1C0F2313407A6813437B607B68F02293437B60194B1B78DBB21A1CF02313407A6813437B60134B7A681A60144B154A1A60154B154A1A607C
:400C4000154B1B687B607A68144B13407B607B68C022D20013437B600F4B7A681A600F20FFF76EFF0E4B0F20191CFFF7D9FE0F200321FFF7FBFEBD4602B080BD00FF084032
:400C80007801002062F1FF0F0800084000020001040008400008A00110000140FFF0FFFF111C000080B582B000AF01F0C7F901F08FF90020002101F097F90020002101F053
:400CC000C9F901F0ADF901F075F9084B1B687B607B68074A13437B60044B7A681A600F20FFF718FFBD4602B080BDC046040008400010088080B500AF0C4B1B78002B04D195
:400D0000FFF752FF094B01221A70FFF7CBFF00F0E9FF074B01221A70064B064A12688021C9030A431A60BD4680BDC04646010020380100200400084080B584B000AF021CFD
:400D4000FB1D1A70FB1D1A78FB1D01321A70FB1D1B78052B00D10BE0FB1D1B78074A101C191C00F0DDFA031CFB60FB68002BE9D0FB1D1B78181CBD4604B080BDE000002003
:400D800080B582B000AF7860084B00221A707B68DAB2074B1A70054B81221A707B68181C00F05AF9BD4602B080BDC0463A0100203B01002080B500AF124B00221A70124B2B
:400DC000FF221A70104B1B78DBB2181CFFF7B4FF031C1A1C0C4B1A700B4B1B78DBB2042B0DD8084B1B78DBB201221343DAB2054B1A70054B1B78DBB2181C00F02DF9BD4621
:400E000080BDC0463A0100203B01002080B500AF044B1B78DBB21A1C01231340181CBD4680BDC0463A01002080B582B000AF7860034B7A685200D35A181CBD4602B080BD20
:400E40003C01002080B582B000AF00237B6006E07B68181C00F070F87B6801337B607B68042BF5D9BD4602B080BDC04690B587B000AF78602C4A7B68D3181B787B612B4AB7
:400E80007B68D3181B78391C13311A1C9218D3180B70264A7B68D3181A783B1C123392001A703C1C1134FFF7C1FC031C2370204B7A699200D3581B68FB603B1C12331B7850
:400EC0000F22111C99400B1CDA43FB681340FB603B1C12331B780422141C9C40231CFA681343FB60134B7A699200D358114A796989008A581268391C133109780720041C32
:400F00008C40211CC9430A401A60094B7A699200D358FA681A603B1C11331B78181CFFF789FCBD4607B090BD1C26000038260000482600005C26000090B589B000AF78608F
:400F40003F4A7B68D3181B787B613E4A7B68D3181A783B1C133392001A703A4A7B68D3181B78391C12311A1C9218D3180B700023FB61354A7B68D3181B78BB61334B7A696B
:400F80009200D358314A796989008A581268391C133109780F20041C8C40211CC9430A401A60BB69022B01D10023BB61BB69012B01D00623FB613C1C1134FFF737FC031C03
:400FC0002370234B7A699200D3581B68FB603B1C12331B780722111C99400B1CDA43FB681340FB603B1C12331B78FA69141C9C40231CFA681343FB60154B7A699200D358CF
:40100000FA681A603B1C11331B78181CFFF712FC104B7A699200D3580E4A796989008A58126808487968411809780120041C8C40211CC9430A401A60BD4609B090BDC04620
:401040001C260000382600009C010020482600005C2600007026000090B589B000AF78603B1C173361497A688A1812781A703B1C17331A785E4B9200D358BB615D4A7B6866
:40108000101C191C00F04CF9031C3B61BA695A4B9A420AD83B69BA69111C99400B1CBB61BB69FF2212041343BB61544A7B68D3181B78013B9BB2181C002100F095FF504A81
:4010C0007B68D3181B78013B9BB2181C002100F0C1FF4C4B1B78002B43D00F20FFF730FD494B1B68FB61FB6940221343FB61FB6980229343FB613B1C0F3341497A688A187D
:4011000012781A703B1C0E333C497A688A1812781A703B1C0F333A1C0F32391C0E31127809784A431A703B1C0F331A78131C1B039B1A1B041A1C3B1C0E331B78391C1731B6
:4011400008782B49800041584B439A4203D2FB6980221343FB612C4BFA691A600F20FFF7D9FC0F20FFF7ECFC284B1B68FB61FA69274B1340FB61274A7B68D3181B781A1C32
:4011800025497B68CB181B781B041343FA691343FB611E4BFA691A601B4B1B68FB61FA691E4B1340FB61FB691D4A1343FB610F20FFF7B0FC7B68181CFFF758FE3C1C0D348E
:4011C000FFF734FB031C23700F4BFA691A600020FFF722FB134BBA691A603B1C0D331B78181CFFF727FBBD4609B090BD40260000F800002098010020FFFFFEFFA40100203D
:401200008001002039010020040008400800084000FF80FF8801002090010020FF1FDFFF20E020000C00084080B586B000AF7860254B1B6899B2254B7A685200D152244A6A
:401240007B68D3181B787B61224B7A699200D258214B9A4215D8214A7B68101C191C00F05FF8031C3B61194B7A685200D35A1A1C3B69111C19410B1C99B2144B7A68520014
:40128000D1527B68181CFFF757FE0F20FFF758FC134B1B68FB60FA68124B1340FB60FB68A02212021343FB600D4BFA681A600E4B0D4A11680D4A0A401A600F20FFF72AFCDA
:4012C000BD4606B080BDC0460C0008403C01002040260000F8000020FFFFFEFF9801002004000840FF1FDFFF0800084000FF80FF80B584B000AF78607A68032313407B60D3
:40130000064B1B68FB607B685B02FA681343FB60024BFA681A60BD4604B080BD0400084080B584B000AF786039603B68DB08FB603A680723134001229A403B1C0B331A701D
:401340007A68FB68D3181B783A1C0B3212781340DBB2002B01D0012300E00023181CBD4604B080BD80B586B000AFF860B9607A60BB68DB087B61BA680723134001229A407F
:401380003B1C13331A707B68002B0DD0FA687B69D318F9687A698A1811783A1C133212780A43D2B21A700EE0FA687B69D318F9687A698A181278391C13310978C943C9B2CB
:4013C0000A40D2B21A70BD4606B080BD80B584B000AF78600023BB600023FB6014E07B68181CFFF7CDFCC046FFF710FD031C012BFAD07B68181CFFF717FD031CBA68D318BE
:40140000BB60FB680133FB60FB68002BE7D0BB689BB2181CBD4604B080BDC04680B588B000AF786039600023FB613AE000237B611F4AFB69D3181B783B611E4AFB69D318F9
:401440001B78BB61BA693B69D318FB600FE03A68BB69D3181B781A1C7B699A4204D93A68BB69D3181B787B61BB690133BB61BA69FB689A42EBD30F4AFB69D3181B78BB619F
:4014800008E03A68BB69D3187A69D2B21A70BB690133BB61BA69FB689A42F2D3FB690133FB61FA697B689A42C0D3BD4608B080BD882600008426000080B582B000AF786020
:4014C0000E4B7A685200D15A0D4B7A685200D1520C4A7B68D31800221A700B4A7B68D31800221A70054B7A685200D15A074B7A685200D152BD4602B080BDC0463C01002039
:4015000048010020540100205C010020BC01002080B582B000AF78607B68181CFFF730FCC046FFF773FC031C002BFAD17B68181CFFF7C2FFBD4602B080BDC04680B582B09F
:4015400000AF00237B6006E07B68181CFFF7E0FF7B6801337B607B68042BF5D9BD4602B080BDC04690B587B000AF78603B1C0F337A497A688A1812781A703B1C0F331A7800
:401580003B1C0E3376498A5C1A703B1C1033754A796849008A5A1A80734B1B78002B15D0724B7A685200D35A3C1C10343A1C10321288101C191C00F0E7FA031C23806B4B6C
:4015C0007A685200391C10310988D1527B68DAB26749644B081C111C1A1C00F02DFE654B7A685200D35A3A1C103212889A4212D3614A7B68D31800221A705E4B7A685200F7
:40160000D25A3B1C1233391C103109888A1A1A8001237B610CE0574B7A685200D15A3B1C12333A1C103212888A1A1A8000237B617B69002B28D13B1C0F331B784F4AD35C89
:401640003A1C123212889A421ED94B4A7B68D3181A784B497B68CB181B789A4209D37B68181CFFF729FF444A7B68D31800221A704CE0414A7B68D3181B780133DAB23E492D
:401680007B68CB181A7041E03B1C0E331B789BB23A1C123212889A420CD93B1C0F331B78364AD35C3A1C123212889A422ED27B69002B2BD12F4B7A685200D35A1B02BB6043
:4016C000304A7B68D3181B78BA681343BB603B1C10331B88BA68D318BB60264B7A685200D35ABA68D31ABB60BB681B0A99B2214B7A685200D152BB68DAB222497B68CB18E5
:401700001A701D4A7B68D31800221A703B1C0E331B789BB23A1C123212889A4216D97B69002B13D03B1C12331B88FF2B05D9164A7B68D318FF221A700DE03B1C12331B8889
:40174000DAB211497B68CB181A7004E00E4A7B68D31800221A70BD4607B090BD40260000AC0100203C01002001010020BC0100200002002048010020B0010020B8010020B2
:40178000FC000020540100205C01002080B582B000AF78607B68181C00F02AFB7B68181CFFF7E0FEBD4602B080BDC04680B582B000AF00237B6011E00B4A7B68101C191C80
:4017C000FFF7AEFD031C3B603B68002B03D07B68181CFFF7DBFF7B6801337B607B68042BEAD9BD4602B080BDE000002080B584B000AFFB1D1870BB1D19707B1D1A703B1CBB
:401800000E33FF221A703B1C0D3300221A70FB1D1A78204BD318BB603B1C0F3300221A702AE03B1C0F331B78BA68D3181B787A1D12789A4219D23B1C0F331B78BA68D31822
:401840001B783A1C0D3212789A420ED23B1C0E333A1C0F3212781A703B1C0F331B78BA68D2183B1C0D3312781A703B1C0F331A783B1C0F3301321A703A1C0F32BB1D12785A
:401880001B789A42CDD33B1C0E331B78181CBD4604B080BD5C01002090B589B000AF041C081C111C1A1CFB1D1C70BB1D18707B1D1970BB1C1A80BB1D1A785A4BD318BB61C9
:4018C0003B1C1F3300221A70FB1D1B78002B05D03B1C1F33FA1D1278013A1A703B1C1733FA1D127801321A70FB1D1B78BA69D3181A784D4B5A70FB1D1B78002B0BD14A4BE6
:4019000000221A703B1C17331B78BA69D3181A78454B9A7022E0FB1D1A787B1D1B78013B9A420BD13B1C1F331B78BA69D3181A783D4B1A703C4B00229A700FE03B1C1F3389
:401940001B78BA69D3181A78374B1A703B1C17331B78BA69D3181A78334B9A70324B1B783A1C303212789A4209D22F4B1A783B1C30331B78D31ADAB22B4B1A7002E02A4B9A
:4019800000221A70284B5A783B1C30331B78D31ADAB2254B5A70244B9B783A1C303212789A4209D2204B9A783B1C30331B78D31ADAB21D4B9A7002E01B4B00229A701A4B2D
:4019C0009B781A1C184B1B78D31A3B61164B1B781A1C154B5B78D218134B9B78D318FB603B691B02181CF96800F020FD031C1A1CFB1D1B781B02D318FB60BB1C1B881AB215
:401A0000FB685343FB60FB68FE22D2019B181A0C3B1C0B331A703B1C0B331B78181CBD4609B090BD5C0100206C01002090B587B002AF78603B1C0D334F497A688A18127853
:401A40001A703B1C0C334D497A688A1812781A703B1C0B3300221A703B1C0A3305221A70474A7B68D3181B783C1C09343A1C0B3211783A1C0A321278081C111C1A1CFFF756
:401A8000B5FE031C23703B1C09331B78FF2B5AD0FE235B013B497A688A1814783A1C093210783A1C0B3211783A1C0A3212780094FFF7F2FE031C1A1C3B1C0E331A803B1C8D
:401AC0000C331A781F2313404ED03B1C08333A1C0D32127801321A703B1C0D331B78264AD35C002B0FD13B1C08331B783A1C0E321288D1B2204AD1543B1C0D331B781E4A27
:401B00000121D15430E03B1C0C331A78102313402AD03B1C08331B78174AD35C3C1C0E343A1C0E321288101C191C00F04BF8031C23803B1C08331B783A1C0E321288D1B2F9
:401B40000D4AD15410E03B1C0E33012252421A803B1C0C331A781F23134005D03B1C0D331B78054A0021D1543B1C0E331B88181CBD4605B090BDC0460C01002008010020EF
:401B8000CC010020AC01002080B584B000AF0A1CBB1D011C19803B1D1A80BB1D1A883B1D1B88D318FB603B1D1B885B00FA68D318FB60FB689B08FB60FB689BB2181CBD46AC
:401BC00004B080BD80B582B000AF0A1CBB1D011C19803B1D1A80BA1D3B1D12881B889A4205D9BB1D1A88BB1D013A1A800AE0BA1D3B1D12881B889A4204D2BB1D1A88BB1D91
:401C000001321A80BB1D1B88181CBD4602B080BD80B500AF0F20FEF793FF2C4B01221A602B4B1B78DBB2181CFFF7FEFA294B1B78DBB2DBB25BB2002B08DA264B1B78DBB204
:401C400001229343DAB2234B1A703AE0204B1B78DBB2181CFFF770F8031C1A1C1C4B1A701B4B1B78DBB2042B06D8194B1B78DBB2181CFFF7F1F924E0164B1B78DBB2012297
:401C80009343DAB2134B1A70124B1B78DBB21A1C4023134015D0104B00221A700DE00E4B1B780D4A12780D49895C0D4AD1540A4B1B780133DAB2084B1A70074B1B78002B7F
:401CC000EDD00F20FEF726FFBD4680BD140008403B0100203A010020700100207C010020E000002080B582B000AF374B05221A70354B01225A70344B05229A70324B182240
:401D0000DA80314B314A9A802F4B314A9A6000F0E5F800233B6007E02E4B3A6892002E49D1503B6801333B60274B5B781A1C3B689A42F1D800237B600CE0284A7B68D31833
:401D400004221A70264A7B68D31802221A707B6801337B607B68042BEFD900F0CBF81A4A204B101C191C00F0B1F91F4B0120191CFFF754FB144B181C00F0BAF91B4B0122BA
:401D80001A70114A174B101C191C00F09FF9164B0120191CFFF742FB0B4B181C00F0CCF9094B181C00F0C0F800237B6006E07B68181C00F01DF87B6801337B607B68042B96
:401DC000F5D9BD4602B080BD0002002066020000A0260000F80000200000FF0F80010020A40100209A0D0000880100203901002090B587B002AF7860314A7B68D3181B78BC
:401E0000FB607B68D9B2FB68DBB22E482E4A2F4C00942F4C019400F09BFA3B1C0B332B49FA688A1812781A70294AFB68D3181A782849FB68CB181A703B1C0B331B78DB2B74
:401E400009D83B1C0B331B78DB08DAB22249FB68CB181A7031E03B1C0B331B78EC2B09D83B1C0B331B781B09DAB21B49FB68CB181A7022E03B1C0B331B78F42B09D83B1CF1
:401E80000B331B785B09DAB21349FB68CB181A7013E03B1C0B331B78F92B09D83B1C0B331B789B09DAB20C49FB68CB181A7004E0094AFB68D31800221A70BD4605B090BD62
:401EC00040260000000200203C010020CC010020AC010020B8010020C801002080B500AF034B034A126840218A431A60BD4680BD0400084080B582B000AF094B1B687B608C
:401F00007A68084B13407B607B688022920013437B60034B7A681A60BD4602B080BDC04608000840FFFCFFFC80B584B000AF78600023FB6017E01A4AFB68D3181B785B0801
:401F4000DAB21849FB68CB181A70154AFB68D3181B7801335B08DAB21149FB68CB181A70FB680133FB607B681B781A1CFB689A42E1D80F20FEF7E4FD0B4B1B68BB60BA6866
:401F80000A4B1340BB60BB68094A1343BB60064BBA681A600F20FEF7BDFDBD4604B080BD880100209001002008000840FFFCFFFC0002000180B500AF044B044A1268802179
:401FC00009060A431A60BD4680BDC0460000024080B500AF034B034A1268520052081A60BD4680BD0000024080B584B000AF0A1CBB1D011C19807B1D1A70084B1B681B0CF7
:402000001B04FB60BB1D1A88FB681343BB60034BBA681A60BD4604B080BDC0460000024080B500AF044B044A1268802109060A431A60BD4680BDC0464000024080B500AF94
:40204000034B034A1268520052081A60BD4680BD4000024080B584B000AF0A1CBB1D011C19807B1D1A70084B1B681B0C1B04FB60BB1D1A88FB681343BB60034BBA681A60C6
:40208000BD4604B080BDC04640000240F7B59C180023071C01910092237008268025237800982B432370BB685B6A9847019A904202D22378AB432370013E6D08002EEED17B
:4020C0002378F82B01D9F8232370F7BD70B5051C0E1C00242B789C4208D2AB68221C1B68281C311CFFF7D2FF0134F3E770BD000038B5051C00242B789C4218D2AA68116867
:402100000B5DDB080F2B00D90F230949D268C95C08481155AA68042B03D9536B211C012202E0536B211C002298470134E3E738BD9026000098010020F0B5051C89B0002607
:402140006B789E4265D2AB68186A805D0290002801D101210291DA69925D009200982A78904254D29A689B69115C0F22114004910099B00000221A504B002749009C591895
:402180000591264903905918069125495918079102980099019243189C4238D2AF68AB88FA68E888115D584300F040F93B68195D00F0EEF804991B4B484340005A2802D997
:4021C0005B084008FAE7BA6903991B0C1B045350154B82081855154BC0081A55144B0F221855144B1A550199059801235B42435206980023435207984352AB689B681B1991
:40220000197801340A401A70019A0232C0E7013696E709B0F0BDC046E00100200C020020EC0100200000FFFFF801002018020020D8010020D0010020F0B54B0089B0039338
:402240009A5A039C3B4B039FE55A3B4E551B02953A4DE2527D5B745C0495394D394E7D5B394F05957F5C029D069787686400BF68735C7F5CB4460797EF0FE419EE170F27C8
:402280002740AD19019775409D4203D2012B05D0013B00E00133FF243F2B00D89C00019E67467B540F2E2BD0002E26D0A54227D8079F049D3C09161EAE4200D92E1C059FCA
:4022C000151EBD4200D23D1C09220027A2427F41BC466444321C0A2C14D1AA1B934207D9069FBF08BC469C45924152429B1A00E00133164A5354321C04E0151C019C01E097
:40230000151C00240C4B019E039F5E540B4B2401DA530B4B0F22DD5383689B685B181D782A401A7083689B6859180B781C430C7009B0F0BDEC010020D0010020E001002093
:402340000C020020D8010020F80100201802002010B50D4A505C0D4A515CFF223F2901D88A00D2B24CB2002C02DB4900C9B200E0FF21904201D94108021C01208243029849
:40238000C254039AD15410BDF801002018020020002934D00123002210B488422CD301242407A14204D2814202D209011B01F8E7E400A14204D2814202D249005B00F8E7C9
:4023C000884201D3401A1A434C08A04202D3001B5C0822438C08A04202D3001B9C082243CC08A04202D3001BDC082243002803D01B0901D00909E3E7101C10BC7047002898
:4024000001D00020C04307B4024802A14018029003BDC046D90000000029F0D003B5FFF7B9FF0EBC4243891A1847C046002941D010B4041C4C40A44601230022002900D5F9
:402440004942002800D5404288422CD301242407A14204D2814202D209011B01F8E7E400A14204D2814202D249005B00F8E7884201D3401A1A434C08A04202D3001B5C084E
:4024800022438C08A04202D3001B9C082243CC08A04202D3001BDC082243002803D01B0901D00909E3E7101C6446002C00D5404210BC7047002806D003DB0020C04340086A
:4024C00001E08020000607B4024802A14018029003BDC046190000000029EBD003B5FFF7A7FF0EBC4243891A1847C0467047C04670B50E4B0E4D0024ED1AAD101E1CAC42AF
:4025000004D0A300F35898470134F8E700F0E4F8084B094D0024ED1AAD101E1CAC4204D0A300F35898470134F8E770BDE4260000E4260000E4260000EC26000010B5002367
:40254000934203D0CC5CC4540133F9E710BD031C8218934202D019700133FAE77047000000000000380A0100790B0100E00C0100A40D0100500F0100301101004B13010075
:402580007114010000300F40000400400F40000404320F4004330F4004400F4005410F4003420F400A430F4002600F4038223E1158045F011D3189208D11E62002405B01CD
:4025C000C010D64046408B019A409F01D08070027410DC031C80642088508C22A412C604D801E002E403E60402011101030405060708090A0B0C0E0F101112131415161779
:4026000018191B1C1D1E1F2021222325262728292A2B2E2F303132333435000003020202010000008000000010000000800000000400000010000000070407020400000068
:4026400000000000000000000000014004000140080001400C0001401000014008000440080104400802044008030440080404400000044000010440000204400003044051
:40268000000404400000000005000000C01F00000101010202020204040404040404040488010020900100201001002080010020A401002040260000F800002084260000A6
:4026C00088260000CD13000059100000290E00002113000065130000F8B5C046F8BC08BC9E4670479D02000035050000F8B5C046F8BC08BC9E4670477502000010270000ED
:40270000C8000020500000000801000000000000000000000178000000366E01C05D0000180000000000E02E1F000000080304400802044008020440080204400801044052
:402740000000FF0F1E1E1E1E1E010000010000001000000001000000040404040400000000000000000000000000000000000000000000000000000000000000000000008E
:402780000000000000000000000000000000000000000000000000000000000000000000000000000000000000000000000000000000000000000000000000000000000019
:4027C00000000000000000000000000000000000000000000000000000000000000000000000000000000000000000000000000000000000000000000000000000000000D9
:402800000000000000000000000000000000000000000000000000000000000000000000000000000000000000000000000000000000000000000000000000000000000098
:402840000000000000000000000000000000000000000000000000000000000000000000000000000000000000000000000000000000000000000000000000000000000058
:0200000490303A
:02000000FDB44D
:0200000490402A
:200000000000000000000000000000000000000000000000000000000000000000000000E0
:0200000490501A
:0C000000000204C81193110104D50F4741
:0200000490600A
:0100000001FE
:00000001FF