:400000000010002011000000510400005104000080B500AF00F020FA80B500AF194B194A12688021C9020A431A60182000F0E8FB144B144A1168144A0A401A60134B144A70
:400040001A60144B20221A60134B10221A60134B30221A60124B11221A60124B802212061A60114B114A1A60114B124A1A60124B124A1A60124B134A1A60134B00221A6058
:40008000BD4680BD00010B40FFFFFBFF04010B40060000801402024018020240200202402402024008010B4000000240FE00008040000240FE0000C0800002400B000080C5
:4000C00004000240BF5D00800C020B4080B582B000AF72B6FB1D00221A7023E0FB1D1A78131C5B009B185B00484A9B183B603B681A78597809020A43997809040A43DB7882
:400100001B0613431A1C3B6819795B791B020B439BB2101C191C00F01DFAFB1D1A78FB1D01321A70FB1D1B78012BD7D9384A394B101C191C00F01EFA374BC02292021A6002
:40014000364BEE2212021A60354B364A1A60364B802292021A60354B802252041A60344B992212041A60334B992212041A60324B992212041A60314BC02292051A60304B7E
:40018000304A1A60304B304A1278D2B202210A43D2B21A702D4B2D4A1278D2B23C218A43D2B214210A43D2B21A70274B264A1278D2B216210A43D2B21A70254B11221A60F0
:4001C000244B254A1A60254B10221A60244B10221A60244B94221A60234B94221A60234B80221A60224BD82212011A60214B80221A60214B04221A60204B04221A60FFF720
:400200000BFF00F0F7F9BD4602B080BDF01C0000FC1C0000181D0000000001400C00014000500F400400990004500F4008500F4010500F4020500F4030500F4038500F4061
:40024000600105401D0D000000700F4001700F400000044008000440026000000001044018010440000204401802044000030440080304401803044000040440180404405A
:4002800010B5064C2378002B07D1054B002B02D0044800E000BF0123237010BD0801002000000000CC1C000008B5084B002B03D00748084900E000BF07480368002B03D0B7
:4002C000064B002B00D0984708BDC04600000000CC1C00000C010020C80000200000000080B58EB000AF62B600F00EFA00F056F800F012FD01F0BEF8642000F03FF83A1DF3
:400300001C4B111C1A1C2023081C111C1A1C01F0CBFC00237B6310233B633B1DFB62164B1B68012B25D17A6B3B6B9A4205D1124B03221A6000F032F8FEE77B6B5A1C7A6373
:400340005B00FA6AD3181B88BB627B6B5A1C7A635B00FA6AD3181B887B62BB6A9AB27B6ADBB2101C191C00F021F8034B02221A60D5E7D4E7D01C0000CC00002080B582B0C1
:4003800000AF021CFB1D1A70034BFA1D12781A70BD4602B080BDC046D100002080B500AF002000F0DFF9BD4680BDC04680B584B000AF0A1CBB1D011C19807B1D1A70204B01
:4003C0000A225A43BB1D1B88101C191C01F0E4FB031CFB601B4B1B78FA685343181C642101F0DAFB031C1A1C3B1C0A331A80FB68181C00F0A9F93B1C0A331B88181C00F097
:40040000B1F9114B1B781148191C01F0C5FB031C1A1C7B1D1B78101C191C01F0BDFB031C1A1C3B1C08331A803B1C08331B88181C00F09AFB012000F0A5FBBD4604B080BD46
:4004400080841E00D0000020D100002060EA000080B500AFFEE7C04680B586B000AF224B7B61224B3B61204B7B6135E03B691B68FB603B695B68BB603B699B683B6000232F
:400480007B600CE0FB681A68BB681A60BB680433BB60FB680433FB607B6804337B607A683B689A42EED13B69DB683B6000237B6008E0BB6800221A60BB680433BB607B68F5
:4004C00004337B607A683B689A42F2D13B6910333B617B69013B7B617B69002BC6D101F0BDFBFFF7FDFEFEE701000000681E000080B582B000AF00237B600FE07B68032B87
:4005000004D8104B7A689200D35800E00E4B0F4A796889008B507B6801337B607B682F2BECD9FFF7D3FD0A4B00221A608023DB058022D205126801210A431A60BD4602B04F
:4005400080BDC046000000005104000000000020C000002080B582B000AF786039607A683B68101C00211A1C01F0A7FBBD4602B080BDC04680B586B000AF7860396000231B
:400580003B6100237B612EE07B699B007A68D3181B68BB603B1C0F33BA681A70BB68FF229343BB6017E03B695B003A68D3181B781A1CBB68D3183A69520039688A185278D2
:4005C0001A703B6901333B613B1C0F331A783B1C0F33013A1A703B1C0F331B78002BE2D17B6901337B617B69062BCDD9BD4606B080BDC04680B500AF012000F003F8BD46CC
:4006000080BDC04680B584B000AF021CFB1D1A70154B1B68FB60FB1D1B78002B05D0FB68802212061343FB6003E0FB685B005B08FB600D4BFA681A600C4B1B68FB60FB1D08
:400640001B78002B05D0FB68802292041343FB6003E0FA68064B1340FB60044BFA681A60BD4604B080BDC04680031A4008010B40FFFFFFFD80B500AF104B8022D2041A60D6
:400680000E4B0E4A12681A60002000F04FF80B4B0A4A12681A600A4B0C221A60012000F08DF8084B31221A60074B181C00F04CF8064B181C00F056F8BD4680BD00010540EA
:4006C0002401054028010540301100009808000090B583B000AFFC1D00F088F8031C2370084B084A126801210A431A60FB1D1B78181C00F07FF80120182100F041F8BD460B
:4007000003B090BD0000054080B500AF064B1B78002B04D1FFF7AEFF034B01221A70FFF7D7FFBD4680BDC0462401002080B582B000AF7860034B7A681204120C1A60BD46E8
:4007400002B080BD0801054080B582B000AF7860034B7A681204120C1A60BD4602B080BD1401054080B582B000AF7860034B7A681204120C1A60BD4602B080BD0C01054014
:4007800090B585B000AF786039603C1C0F3400F02DF8031C2370084B3A687968081C9040021C1A603B1C0F331B78181C00F022F8BD4605B090BDC0460800054080B582B0B2
:4007C00000AF7860024B7A681A60BD4602B080BD38010540000000000230800804D0C0460138FDD1C046C046C0467047EFF3108072B6704780F310887047C046C046C046D0
:4008000090B585B000AF78603C1C0C34FFF7EEFF031C23707B68022B00D8AFE07B68302B00D9ABE05B4B1B78DBB21A1C7B689A420AD3594A3B1C0F3312781A70574A3B1C91
:400840000E3312781A703FE0554B1B78DBB21A1C7B689A420AD3534A3B1C0F3312781A70514A3B1C0E3312781A702DE04F4B1B78DBB21A1C7B689A420AD34D4A3B1C0F3318
:4008800012781A704B4A3B1C0E3312781A701BE0494B1B78DBB21A1C7B689A420AD3474A3B1C0F3312781A70454A3B1C0E3312781A7009E0434A3B1C0F3312781A70424A3A
:4008C0003B1C0E3312781A707B68DA1E3B1C0B333E498A5C1A703B1C0B331B782F2B0DD97B682A2B0AD93A4B19221A600520FFF773FF3B1C0D3319221A7007E0344B1B6856
:40090000D9B23B1C0D333F220A401A703A1C0B323B1C0D3312781B789A4208D22C4B7A68033A2A498A5C1A600520FFF755FF294B7A68254952181278D2B21A60264B3A1C0E
:400940000F3212781A60254B3A1C0E3212781A60052000F0F5F83A1C0B323B1C0D3312781B789A4209D91A4B7A68033A17498A5C1A600520FFF730FF03E002E0002000F0BE
:40098000D5F83B1C0C331B78181CFFF733FFBD4605B090BDC0F1FF0FC1F1FF0FC2F1FF0FC3F1FF0FC4F1FF0FC5F1FF0FC6F1FF0FC7F1FF0FC8F1FF0FC9F1FF0FCAF1FF0F74
:4009C000CBF1FF0FCCF1FF0FCDF1FF0F581D00002CFF0B4028FF0B401CFF0B4020FF0B4080B584B000AF021C3960FB1D1A7080239B05FB60FB1D1B781F2B02D9002000F07A
:400A000095F8FB1D1B7810339B00FA68D3181B68BB60FB1D1B7810339B00FA68D3183A681A60BB68181CBD4604B080BD90B587B000AF0A1CFB1D011C1970BB1D1A70BB1D2F
:400A40001B78032B02D9002000F070F8FB1D1B781F2B02D9002000F069F8FB1D1A7803231340DB0006337B613C1C1334FFF7BEFE031C2370FB1D1B789B08DBB29B00144938
:400A80005B181B68FB607B690322111C99400B1CDA43FB681340FB60BB1D1A787B69111C99400B1CFA681343FB60FB1D1B789B08DBB29B00064A9B18FA681A603B1C133301
:400AC0001B78181CFFF796FEBD4607B090BDC04600E400E080B582B000AF021CFB1D1A70064BFA1D11781F220A400121081C9040021C1A60BD4602B080BDC04600E100E01B
:400B000080B582B000AF021CFB1D1A70064BFA1D11781F220A400121081C9040021C1A60BD4602B080BDC04680E100E080B582B000AF021CFB1D1A7001BEBD4602B080BDF5
:400B400080B582B000AF021CBB1D1A80BB1D1B88044A12785343181CFFF73EFEBD4602B080BDC046DC00002080B582B000AF7860034B7A681204120C1A60BD4602B080BDCE
:400B80004C01054080B584B000AF021CFB1D1A700D4B1B68DAB23B1C0F3301218A431A70FB1D1A7801231340D9B23B1C0F333A1C0F3212780A431A70034B3A1C0F321278A6
:400BC0001A60BD4604B080BD0000044080B582B000AF00237B6007E00A4A7B68D31800221A707B6801337B607B68042BF4D900F00BF8002000F018FB00F00AF9BD4602B0EB
:400C000080BDC0468801002080B582B000AF244B1B68DAB2234B1A70224B1B787B607B680F2293437B60204B1B78DBB21A1C0F2313407A6813437B607B68F02293437B609D
:400C4000194B1B78DBB21A1CF02313407A6813437B60134B7A681A60144B154A1A60154B154A1A60154B1B687B607A68144B13407B607B68C022D20013437B600F4B7A68E5
:400C80001A600F20FFF73CFF0E4B0F20191CFFF7A7FE0F200321FFF7C9FEBD4602B080BD00FF08406401002062F1FF0F0800084000020001040008400008A001100001403A
:400CC000FFF0FFFF9D14000080B582B000AF00F0F7FD00F0BFFD0020002100F0C7FD0020002100F0F9FD00F0DDFD00F0A5FD084B1B687B607B68074A13437B60044B7A68F1
:400D00001A600F20FFF7E6FEBD4602B080BDC046040008400010088080B500AF0C4B1B78002B04D1FFF752FF094B01221A70FFF7CBFF00F01DFC074B01221A70064B064AD5
:400D400012688021C9030A431A60BD4680BDC04636010020280100200400084080B584B000AF021CFB1D1A70FB1D1A78FB1D01321A70FB1D1B78052B00D10BE0FB1D1B78FA
:400D8000074A101C191C00F067FA031CFB60FB68002BE9D0FB1D1B78181CBD4604B080BDE400002080B582B000AF7860084B00221A707B68DAB2074B1A70054B81221A70E3
:400DC0007B68181C00F02EF9BD4602B080BDC046290100202A01002080B500AF044B1B78DBB21A1C01231340181CBD4680BDC0462901002080B582B000AF7860034B7A6856
:400E00005200D35A181CBD4602B080BD2C01002080B582B000AF00237B6006E07B68181C00F070F87B6801337B607B68042BF5D9BD4602B080BDC04690B587B000AF78608A
:400E40002C4A7B68D3181B787B612B4A7B68D3181B78391C13311A1C9218D3180B70264A7B68D3181A783B1C123392001A703C1C1134FFF7BBFC031C2370204B7A699200A6
:400E8000D3581B68FB603B1C12331B780F22111C99400B1CDA43FB681340FB603B1C12331B780422141C9C40231CFA681343FB60134B7A699200D358114A796989008A5815
:400EC0001268391C133109780720041C8C40211CC9430A401A60094B7A699200D358FA681A603B1C11331B78181CFFF783FCBD4607B090BD881D0000A41D0000B41D000059
:400F0000C81D000090B589B000AF78603F4A7B68D3181B787B613E4A7B68D3181A783B1C133392001A703A4A7B68D3181B78391C12311A1C9218D3180B700023FB61354A9F
:400F40007B68D3181B78BB61334B7A699200D358314A796989008A581268391C133109780F20041C8C40211CC9430A401A60BB69022B01D10023BB61BB69012B01D00623A6
:400F8000FB613C1C1134FFF731FC031C2370234B7A699200D3581B68FB603B1C12331B780722111C99400B1CDA43FB681340FB603B1C12331B78FA69141C9C40231CFA6885
:400FC0001343FB60154B7A699200D358FA681A603B1C11331B78181CFFF70CFC104B7A699200D3580E4A796989008A58126808487968411809780120041C8C40211CC94389
:401000000A401A60BD4609B090BDC046881D0000A41D000088010020B41D0000C81D0000DC1D000090B589B000AF78603B1C1B333D497A688A1812781A703B1C1B331A7820
:401040003A4B9200D358FB61394A7B68101C191C00F002F9031C7B61FA69364B9A420AD87B69FA69111C99400B1CFB61FB69FF2212041343FB61304A7B68D3181B78013B4F
:401080009BB2181C002100F0F1FB2C4A7B68D3181B78013B9BB2181C002100F01DFC0F20FFF72EFD264B1B683B613A69254B13403B61254A7B68D3181B781A1C23497B68BD
:4010C000CB181B781B0413433A6913433B611C4B3A691A601E4B1B683B613A691D4B13403B613B691C4A13433B610F20FFF7F2FC7B68181CFFF7A0FE3C1C0F34FFF776FBAE
:40110000031C2370124B3A691A600020FFF764FB124BFA691A603B1C0F331B78181CFFF769FBBD4609B090BDAC1D0000FC00002084010020FFFFFEFF900100206C0100204E
:401140000800084000FF80FF740100207C01002004000840FF1FDFFF20E020000C00084080B586B000AF7860254B1B6899B2254B7A685200D152244A7B68D3181B787B6111
:40118000224B7A699200D258214B9A4215D8214A7B68101C191C00F05FF8031C3B61194B7A685200D35A1A1C3B69111C19410B1C99B2144B7A685200D1527B68181CFFF7E2
:4011C000A1FE0F20FFF79CFC134B1B68FB60FA68124B1340FB60FB68A02212021343FB600D4BFA681A600E4B0D4A11680D4A0A401A600F20FFF76EFCBD4606B080BDC046FD
:401200000C0008402C010020AC1D0000FC000020FFFFFEFF8401002004000840FF1FDFFF0800084000FF80FF80B584B000AF78607A68032313407B60064B1B68FB607B683A
:401240005B02FA681343FB60024BFA681A60BD4604B080BD0400084080B584B000AF786039603B68DB08FB603A680723134001229A403B1C0B331A707A68FB68D3181B782D
:401280003A1C0B3212781340DBB2002B01D0012300E00023181CBD4604B080BD80B586B000AFF860B9607A60BB68DB087B61BA680723134001229A403B1C13331A707B68F9
:4012C000002B0DD0FA687B69D318F9687A698A1811783A1C133212780A43D2B21A700EE0FA687B69D318F9687A698A181278391C13310978C943C9B20A40D2B21A70BD463B
:4013000006B080BD80B584B000AF78600023BB600023FB6014E07B68181CFFF743FDC046FFF75AFD031C012BFAD07B68181CFFF761FD031CBA68D318BB60FB680133FB60C1
:40134000FB68002BE7D0BB689BB2181CBD4604B080BDC04680B588B000AF786039600023FB613AE000237B611F4AFB69D3181B783B611E4AFB69D3181B78BB61BA693B6951
:40138000D318FB600FE03A68BB69D3181B781A1C7B699A4204D93A68BB69D3181B787B61BB690133BB61BA69FB689A42EBD30F4AFB69D3181B78BB6108E03A68BB69D3183D
:4013C0007A69D2B21A70BB690133BB61BA69FB689A42F2D3FB690133FB61FA697B689A42C0D3BD4608B080BDF41D0000F01D000080B582B000AF78600E4B7A685200D15AFC
:401400000D4B7A685200D1520C4A7B68D31800221A700B4A7B68D31800221A70054B7A685200D15A074B7A685200D152BD4602B080BDC0462C010020380100204401002003
:401440004C010020A801002080B582B000AF78607B68181CFFF7A6FCC046FFF7BDFC031C002BFAD17B68181CFFF7C2FFBD4602B080BDC04680B582B000AF00237B6006E00F
:401480007B68181CFFF7E0FF7B6801337B607B68042BF5D9BD4602B080BDC04680B500AF0F20FFF72DFB2C4B01221A602B4B1B78DBB2181CFFF754FE294B1B78DBB2DBB2FE
:4014C0005BB2002B08DA264B1B78DBB201229343DAB2234B1A703AE0204B1B78DBB2181CFFF73CFC031C1A1C1C4B1A701B4B1B78DBB2042B06D8194B1B78DBB2181CFFF736
:4015000091FD24E0164B1B78DBB201229343DAB2134B1A70124B1B78DBB21A1C4023134015D0104B00221A700DE00E4B1B780D4A12780D49895C0D4AD1540A4B1B78013349
:40154000DAB2084B1A70074B1B78002BEDD00F20FFF7C0FABD4680BD140008402A010020290100206001002068010020E400002080B582B000AF364B05221A70344B01222D
:401580005A70334B05229A70314B1822DA80304B304A9A802E4B304A9A6000F0E1F800233B6007E02D4B3A6892002D49D1503B6801333B60264B5B781A1C3B689A42F1D8C1
:4015C00000237B600CE0274A7B68D31804221A70254A7B68D31802221A707B6801337B607B68042BEFD900F0C7F8194A1F4B101C191C00F0ADF91E4B0120191CFFF7AAFE8B
:40160000134B181C00F0B6F9114A184B101C191C00F09EF9164B0120191CFFF79BFE0C4B181C00F0CBF90A4B181C00F0BFF800237B6006E07B68181C00F01CF87B68013308
:401640007B607B68042BF5D9BD4602B080BDC046EC010020CC0400000C1E0000FC0000200000FF0F6C010020900100209A0D00007401002090B587B002AF7860314A7B68A9
:40168000D3181B78FB607B68D9B2FB68DBB22E482E4A2F4C00942F4C019400F00FFA3B1C0B332B49FA688A1812781A70294AFB68D3181A782849FB68CB181A703B1C0B33A3
:4016C0001B78DB2B09D83B1C0B331B78DB08DAB22249FB68CB181A7031E03B1C0B331B78EC2B09D83B1C0B331B781B09DAB21B49FB68CB181A7022E03B1C0B331B78F42B18
:4017000009D83B1C0B331B785B09DAB21349FB68CB181A7013E03B1C0B331B78F92B09D83B1C0B331B789B09DAB20C49FB68CB181A7004E0094AFB68D31800221A70BD46B3
:4017400005B090BDAC1D0000EC0100202C010020B801002098010020A4010020B401002080B500AF034B034A126840218A431A60BD4680BD0400084080B582B000AF094B81
:401780001B687B607A68084B13407B607B688022920013437B60034B7A681A60BD4602B080BDC04608000840FFFCFFFC80B584B000AF78600023FB6017E01A4AFB68D31821
:4017C0001B785B08DAB21849FB68CB181A70154AFB68D3181B7801335B08DAB21149FB68CB181A70FB680133FB607B681B781A1CFB689A42E1D80F20FFF782F90B4B1B689A
:40180000BB60BA680A4B1340BB60BB68094A1343BB60064BBA681A600F20FFF75BF9BD4604B080BD740100207C01002008000840FFFCFFFC0002000180B500AF044B044A6B
:401840001268802109060A431A60BD4680BDC0460000024080B500AF034B034A1268520052081A60BD4680BD0000024080B584B000AF0A1CBB1D011C19807B1D1A70084B0D
:401880001B681B0C1B04FB60BB1D1A88FB681343BB60034BBA681A60BD4604B080BDC0460000024080B500AF044B044A1268802109060A431A60BD4680BDC0464000024056
:4018C00080B500AF034B034A1268520052081A60BD4680BD4000024080B584B000AF0A1CBB1D011C19807B1D1A70084B1B681B0C1B04FB60BB1D1A88FB681343BB60034B06
:40190000BA681A60BD4604B080BDC04640000240F7B59C180023071C01910092237008268025237800982B432370BB685B6A9847019A904202D22378AB432370013E6D0853
:40194000002EEED12378F82B01D9F8232370F7BD70B5051C0E1C00242B789C4208D2AB68221C1B68281C311CFFF7D2FF0134F3E770BD000038B5051C00242B789C4218D28C
:40198000AA6811680B5DDB080F2B00D90F230949D268C95C08481155AA68042B03D9536B211C012202E0536B211C002298470134E3E738BDFC1D000084010020F0B5051C14
:4019C00089B000266B789E4265D2AB68186A805D0290002801D101210291DA69925D009200982A78904254D29A689B69115C0F22114004910099B00000221A504B002749CB
:401A0000009C59180591264903905918069125495918079102980099019243189C4238D2AF68AB88FA68E888115D584300F0B4F83B68195D00F062F804991B4B4843400087
:401A40005A2802D95B084008FAE7BA6903991B0C1B045350154B82081855154BC0081A55144B0F221855144B1A550199059801235B42435206980023435207984352AB68F2
:401A80009B681B19197801340A401A70019A0232C0E7013696E709B0F0BDC046CC010020F8010020D80100200000FFFFE401002004020020C4010020BC01002010B50D4AB9
:401AC000505C0D4A515CFF223F2901D88A00D2B24CB2002C02DB4900C9B200E0FF21904201D94108021C012082430298C254039AD15410BDE401002004020020002934D06B
:401B00000123002210B488422CD301242407A14204D2814202D209011B01F8E7E400A14204D2814202D249005B00F8E7884201D3401A1A434C08A04202D3001B5C08224332
:401B40008C08A04202D3001B9C082243CC08A04202D3001BDC082243002803D01B0901D00909E3E7101C10BC7047002801D00020C04307B4024802A14018029003BDC04618
:401B8000D90000000029F0D003B5FFF7B9FF0EBC4243891A1847C046002941D010B4041C4C40A44601230022002900D54942002800D5404288422CD301242407A14204D2F2
:401BC000814202D209011B01F8E7E400A14204D2814202D249005B00F8E7884201D3401A1A434C08A04202D3001B5C0822438C08A04202D3001B9C082243CC08A04202D354
:401C0000001BDC082243002803D01B0901D00909E3E7101C6446002C00D5404210BC7047002806D003DB0020C043400801E08020000607B4024802A14018029003BDC04672
:401C4000190000000029EBD003B5FFF7A7FF0EBC4243891A1847C0467047C04670B50E4B0E4D0024ED1AAD101E1CAC4204D0A300F35898470134F8E700F0E4F8084B094DEC
:401C80000024ED1AAD101E1CAC4204D0A300F35898470134F8E770BD501E0000501E0000501E0000581E000010B50023934203D0CC5CC4540133F9E710BD031C8218934233
:401CC00002D019700133FAE77047000000000000380A0100790B0100E00C0100A40D0100500F0100301101004B1301007114010000300F40000400400F40000404320F4034
:401D000004330F4004400F4005410F4003420F400A430F4002600F4038223E1158045F011D3189208D11E61002405F01C010D68046408F0197019A40D08070027410DC03AF
:401D40001880642088108C62A412C608D801E002E403E60802011101030405060708090A0B0C0E0F101112131415161718191B1C1D1E1F2021222325262728292A2B2E2FD7
:401D800030313233343500000302020201000000800000001000000080000000040000001000000007040702040000000000000000000000000001400400014008000140DF
:401DC0000C00014010000140080004400801044008020440080304400804044000000440000104400002044000030440000404400000000005000000C01F00000101010278
:401E0000020202040404040404040404740100207C010020000100206C01002090010020AC1D0000FC000020F01D0000F41D00000513000025100000F50D0000591200002A
:401E40009D120000F8B5C046F8BC08BC9E467047A9020000F1040000F8B5C046F8BC08BC9E46704781020000781E0000C8000020400000000801000000000000010000003C
:401E80000178000000366E01C05D0000180000000000E02E1F00000008030440080204400802044008020440080104400000FF0F0202020202000000000000000000000004
:401EC00000000000000000000000000000000000000000000000000000000000000000000000000000000000000000000000000000000000000000000000000000000000E2
:401F000000000000000000000000000000000000000000000000000000000000000000000000000000000000000000000000000000000000000000000000000000000000A1
:401F40000000000000000000000000000000000000000000000000000000000000000000000000000000000000000000000000000000000000000000000000000000000061
:401F80000000000000000000000000000000000000000000000000000000000000000000000000000000000000000000000000000000000000000000000000000000000021
:0200000490303A
:0200000044A416
:0200000490402A
:200000000000000000000000000000000000000000000000000000000000000000000000E0
:0200000490501A
:0C000000000204C81193110104D256370D
:0200000490600A
:0100000001FE
:00000001FF